:1000000023C03BC03AC039C038C08BC136C035C0F0
:1000100034C033C032C031C030C09DC2CCC1010237
:100020000000040000000000000000003800000094
:100030000000370002020202020202020202010272
:10004000040810202004100811241FBECFEDCDBFDE
:1000500010E0A0E6B0E0E0E6F7E002C005900D9207
:10006000AE36B107D9F720E0AEE6B0E001C01D9290
:10007000AB3AB207E1F7CAD271C3C2CF90E0FC013C
:10008000E25CFF4F24918C5C9F4FFC01849188239C
:1000900099F090E0880F991FFC01E25DFF4FA59158
:1000A000B491FC01E85DFF4F859194918FB7F8946E
:1000B000EC91E22BEC938FBF089590E0FC01E25E9F
:1000C000FF4F3491FC01E25CFF4F2491FC01EC5C9A
:1000D000FF4FE491EE23B9F0332329F0323001F1E0
:1000E00098F43130C9F0F0E0EE0FFF1FE85DFF4FEC
:1000F000A591B4918FB7F894EC91611114C020953B
:100100002E232C938FBF0895333011F0343059F7DC
:100110008CB58F7D8CBDE7CF8AB58F778ABDE3CF55
:100120008AB58F7DFBCF2E2BECCF8091A100882349
:10013000E1F3E091A300F0E0ED58FF4F8081909152
:10014000A3009F5F9F709093A3009091A100915096
:100150009093A100089590919E009031E1F3E09179
:100160009F00F0E0ED57FF4F808380919F008F5FED
:100170008F7080939F0080919E008F5F80939E0080
:100180000895CF9380917100813041F480916F0088
:10019000E2DF82E080937100CF910895809170003A
:1001A000843071F08530F1F0823039F4E0916E00E6
:1001B000F0E0E559FF4F8081CEDF10927100ECCF67
:1001C000C091AA00EC2FF0E0E05AFF4F8081C3DF1E
:1001D000CF5FC093AA00CB30F8F21092710010925A
:1001E000AA00DACF83E0E8CF0F931F93CF93DF937A
:1001F000109271001092700090E890936F00CFEF12
:10020000C80FC33208F06FC0182F8FDF80937000C3
:1002100021E020937100833009F442C048F481301A
:10022000D9F0823009F464C0809170008F7E22C0C2
:10023000843009F46BC08630B9F7C13009F062C070
:1002400074DF8093AA008B3008F44BC01092AA0090
:100250001092700081E845C0C23008F453C065DFD9
:10026000082F63DFD82FCDEFC10F023030F010928E
:10027000700081E880936F000EC0E02FF0E0E55938
:10028000FF4F8083011104C0682F90E080E058D2B6
:10029000DF7ED0936F00CC2331F147DFC150FBCF1D
:1002A000CC2381F18091AA008C0F9927991F0B977D
:1002B0004CF520936C00D091AA000D2F10E035DF93
:1002C000F801E05AFF4F8083C150DF5FD093AA004E
:1002D000C111F1CFDB3010F01092AA008091AA007A
:1002E0008F7E80936F00DF91CF911F910F910895C2
:1002F000C13041F41ADF80936E00823090F3109287
:100300006E00A6CF1092700082E8B4CF8091AA0050
:100310008C0F9927991F0C970CF486CF10927000C0
:1003200083CF1F920F920FB60F9211242F933F93FA
:100330008F939F93AF93BF9380919A0090919B006E
:10034000A0919C00B0919D003091990020E3230F73
:100350002D3758F54096A11DB11D2093990080932B
:100360009A0090939B00A0939C00B0939D00809175
:10037000950090919600A0919700B09198000196F9
:10038000A11DB11D8093950090939600A0939700B6
:10039000B0939800BF91AF919F918F913F912F9112
:1003A0000F900FBE0F901F90189523EB230F4196CF
:1003B000A11DB11DD2CF1F920F920FB60F92112423
:1003C0002F933F934F935F936F937F938F939F935D
:1003D000AF93BF93EF93FF9380919300909194001C
:1003E0008230910509F488C0B0F40097A1F101971B
:1003F00009F45BC0FF91EF91BF91AF919F918F91F5
:100400007F916F915F914F913F912F910F900FBE10
:100410000F901F9018958430910509F477C078F1FA
:10042000059741F78091A100803190F4E091A200FE
:100430008FB1F0E0ED58FF4F80838091A2008F5F75
:100440008F708093A2008091A1008F5F8093A100A4
:1004500084E090E00DC08FB1882331F08FB1869594
:100460009091A500891315C0789BF2CF81E090E0B0
:1004700090939400809393001FB8B89A45C0E09180
:10048000A800F091A900309709F009958FB1882351
:1004900061F088EA8DB980E78EB91092A40085B723
:1004A00090917200892B85BFA5CF80919E008823F3
:1004B000E1F0E091A000F0E0ED57FF4F80818FB9AF
:1004C0008091A0008F5F8F708093A00080919E002C
:1004D000815080939E0082E090E0909394008093FE
:1004E0009300B89A80E78EB985CFB8981FB88EE789
:1004F0008EB988EA8DB9F6CF83E090E090939400AE
:1005000080939300B8981FB88EE7EDCF85E090E018
:100510009093940080939300B89880E78EB986B347
:1005200082FFFDCF80FD66CF86B385708430E1F316
:10053000853009F05FCFE091A600F091A7003097D9
:1005400009F4A7CF8091A100882309F4A2CF80915C
:10055000A10009959ECF1F920F920FB60F92112402
:100560002F933F934F935F936F937F938F939F93BB
:10057000AF93BF93EF93FF938091A400811107C0C5
:1005800085B780728093720085B78F7D85BF10928A
:10059000940010929300B89886B3982F9570943079
:1005A000D9F380FD29C08091A400882369F0E091EF
:1005B000A600F091A700309739F08091A100882320
:1005C00019F08091A100099588EF8DB981E08093A1
:1005D000A40080EF8EB9FF91EF91BF91AF919F91F1
:1005E0008F917F916F915F914F913F912F910F90DC
:1005F0000FBE0F901F90189588EA8DB91092A40035
:1006000085B790917200892B85BFE3CF78948AB526
:1006100082608ABD8AB581608ABD83B7826083BFEC
:1006200083B7816083BF89B7826089BF80B78260EA
:1006300080BF3298319A309A379A8CB580648CBDDD
:1006400084E01CDD83E01ADD81E018DD60E084E0F9
:1006500034DD60E083E031DD60E081E02EDD10928A
:10066000AA0090E080E064D018160CF45EC084EE1E
:1006700080936B0064EE90E080E062D080916B002C
:100680001092A3001092A2001092A1001092A0005C
:1006900010929F0010929E008093A50087B3856002
:1006A00087BBC29AC09AB89888EA8DB980EF8EB994
:1006B0001092A40084EF90E09093A7008093A6008E
:1006C00081EC90E09093A9008093A80080E0E82E50
:1006D00080E0F82E80916C00813011F560E084E0BC
:1006E000ECDCD0E0C0E0FE01E05AFF4F008118E0F2
:1006F000602F661F6627661F81E0DFDC000F61E068
:1007000083E0DBDC60E083E0D8DC115089F72196E0
:10071000CB30D10541F761E084E0CFDC10926C0072
:10072000E114F104B9F26CDCD5CF80936B00A6CF55
:10073000E199FECF1FBA8EBBE09A99278DB3089539
:10074000262FE199FECF1CBA1FBA8EBB2DBB0FB668
:10075000F894E29AE19A0FBE01960895F894FFCFBB
:0E0760005555555555555555555555E4000000
:00000001FF
